:020000021000EC
:10B0000000800020B52C0200E52C0200E72C020095
:10B01000E92C0200EB2C0200ED2C020000000000E5
:10B02000000000000000000000000000EF2C020003
:10B030000000000000000000F12C0200F32C0200D0
:10B04000F52C0200F52C020031C90100F52C02009C
:10B05000F52C0200F52C02005DC40100F52C020065
:10B06000F52C0200F52C0200F52C0200F52C020054
:10B07000F52C0200F52C0200F52C0200F52C020044
:10B08000F52C0200A9B80100F52C0200F52C0200F5
:10B090006DB90100F52C0200212C0200F52C0200F4
:10B0A000F52C0200F52C0200F52C0200F52C020014
:10B0B000F52C0200F52C020000000000000000004A
:10B0C000F52C0200F52C0200F52C0200F52C0200F4
:10B0D000F52C0200F52C020000000000000000002A
:10B0E0000000000000000000000000000000000060
:10B0F0000000000000000000000000000000000050
:10B10000000000000000000000000000000000003F
:10B11000000000000000000000000000000000002F
:10B4000010B5054C237833B9044B13B10448AFF39E
:10B4100000800123237010BD801F00200000000069
:10B42000C42E0200084B10B51BB108480849AFF301
:10B4300000800848036803B910BD074B002BFBD000
:10B44000BDE81040184700BF00000000C42E0200F5
:10B45000841F0020801F002000000000154B002BDF
:10B4600008BF134B9D46A3F5803A00218B460F463B
:10B470001348144A121A00F065F80F4B002B00D045
:10B4800098470E4B002B00D0984700200021040065
:10B490000D000D48002802D00C48AFF3008000F0EA
:10B4A0002BF82000290003F099FD00F011F800BFEF
:10B4B00000000800008000200000000000000000E4
:10B4C000801F0020142A002000000000000000005F
:10B4D00008B5074B044613B10021AFF30080054BBC
:10B4E0001868836A03B19847204600F033F800BF1C
:10B4F00000000000902D020070B50E4B0E4CE41AB7
:10B50000A41000251E46A54204D056F825309847C1
:10B510000135F8E707F02EFC084C094BE41AA4109B
:10B5200000251E46A54204D056F82530984701351F
:10B53000F8E770BD781F0020781F00207C1F0020D6
:10B54000781F002002440346934202D003F8011BF7
:10B55000FAE77047FEE700BF2DE9F84F234B1A7852
:10B560008AB3DFF88CB0DFF88C80DFF88C90002491
:10B570004FF0010A03E00134E4B2944223D226B230
:10B58000D8F80050DBF8003015F836000AFA00F160
:10B59000194205EBC607EED0154A23EA01031360F2
:10B5A00000F052FF15F83650D9F800300AFA05F1CC
:10B5B0000B4000FA05F18B4207D00C4B01341A788E
:10B5C000E4B29442DBD3BDE8F88F79787B68A1F1CF
:10B5D0000101B1FA81F14909002BEED0091A284680
:10B5E000B1FA81F149099847E7E700BFA41F00209D
:10B5F000CC1F0020A01F0020C81F002070B50646E9
:10B60000114800F001FD40B9104D01242B68B440F1
:10B610001C4203D023EA04042C6070BD304600F0C5
:10B6200013FF0B4E326860B122432B680949326028
:10B630001C432C60044809680022BDE8704000F0FB
:10B6400077BC22EA0402F0E7A81F0020CC1F0020EC
:10B65000C81F00209C1F0020F0B5042A85B01746A3
:10B6600002D8072005B0F0BD0191054600F0B6FDF7
:10B670000199002830D01C4CDFF888E01B481C4A98
:10B680001C4B256000264C1E07608EF800101660CB
:10B690001E60E4B2032709B918E01C4623B205EB8B
:10B6A000C30215F833009378134A8DF80D3003A9BF
:10B6B0008DF80C708DF80E608DF80F6000F098FD1D
:10B6C000631E0028CED1DBB2002CE6D10B4A0C4819
:10B6D000002100F01BFCC5E7019100F047FD019936
:10B6E0000028C8D0BEE700BFA01F00209C1F00207C
:10B6F000C81F0020CC1F0020FDB5010059B5010076
:10B70000942D0200A41F002070B5084D2B785BB16A
:10B71000074E00243368012113F8340000F032FE94
:10B720002B780134A342F5D8002070BDA41F00205F
:10B73000A01F0020BFF34F8F0449054BCA6802F4D5
:10B74000E0621343CB60BFF34F8FFEE700ED00E0F4
:10B750000400FA0500B585B000230390194644F2B1
:10B76000010001AAADF804300293FFF7E3FF05B032
:10B770005DF804FB484B494830B401214FF4803454
:10B780004FF400352F22C0F88050C3F848431046CC
:10B79000C3F808435960013800BF00BF00BF00BFB5
:10B7A00000BF00BF00BF00BF00BF00BF00BF00BFA1
:10B7B00000BF00BF00BF00BF00BF00BF00BF00BF91
:10B7C00000BF00BF00BF00BF00BF00BF00BF00BF81
:10B7D00000BF00BF00BF00BF00BF00BF00BF00BF71
:10B7E00000BF00BF00BF00BF00BF00BF00BF00BF61
:10B7F00000BF00BF00BF00BF00BF00BF00BF00BF51
:10B8000000BF00BF00BF00BF00BF00BFC3D1244CBA
:10B810009960002310462360013800BF00BF00BFBD
:10B8200000BF00BF00BF00BF00BF00BF00BF00BF20
:10B8300000BF00BF00BF00BF00BF00BF00BF00BF10
:10B8400000BF00BF00BF00BF00BF00BF00BF00BF00
:10B8500000BF00BF00BF00BF00BF00BF00BF00BFF0
:10B8600000BF00BF00BF00BF00BF00BF00BF00BFE0
:10B8700000BF00BF00BF00BF00BF00BF00BF00BFD0
:10B8800000BF00BF00BF00BF00BF00BF00BFC3D1EB
:10B89000044A137030BC70470010014000E100E022
:10B8A000D01F0020F01F00202DE9F041274A284B2F
:10B8B0000025C2F84051C2F84451C2F84851C2F8BC
:10B8C0004C51C2F80051C2F804511B681BB3214906
:10B8D000D2F804250C68204F141B1A6824F07F440A
:10B8E000A242A84609D8197CDE69A41A1544A1B958
:10B8F0001EB133461A68A242F5D9184B18491A7876
:10B900000B789A421BD01749174A41F823504FF43D
:10B910008013C2F80031BDE8F081D3F814C083F879
:10B9200010803A689B69604619462AB19047002802
:10B93000DED0FFF70FFFDBE71846E047D8E7531CE0
:10B94000DBB2022B08BF00230B70DCE700100140C4
:10B95000D41F0020D01F0020D81F0020E41F00208B
:10B96000E51F0020E81F002000E100E02DE9F04F76
:10B97000A34AA44913780978A34887B000680190C6
:10B98000994200F061810133DBB2022B08BF002332
:10B9900013709E4A52F823C0019B9B4A634423F0D4
:10B9A0007F43136001230393994B9A4A93F800B0A5
:10B9B000994B1268D3F800A0984B05921B7802931C
:10B9C000914B1B680493D8460025114608F1FF38B7
:10B9D0005FFA88F8B8F1FF0F4DD00FFA88F30AEB41
:10B9E000C3041AF833006778BE467045EED000EB0A
:10B9F0004006636894F8029013F836700130C0B2C4
:10BA0000814508BF0020022F03EBC6030DD0032F92
:10BA1000EBD10AB9E9E71A46D3691574002BFAD1BC
:10BA200019461A4694F801E0DFE75F68002ADCD087
:10BA3000974217D0164600E01E46F369002BD4D07B
:10BA40009F42F9D1B742334600F0EC80FE693F686F
:10BA5000DE61002EE6D033683B44336094F801E0A9
:10BA60000A46C2E7D36917461946002B00F0E0806A
:10BA70001A463B46EAE713460A4668499DF808001D
:10BA80000870614904980860624902930A6003994A
:10BA90001846002940F0DD80059B1B1A18BF0123C2
:10BAA00003930D465C4B029E1B680593564BDFF8D3
:10BAB0007081D3F800E0574BD3F80090574B1B78B8
:10BAC000049300274FF0010C30460BF1FF3B5FFA67
:10BAD0008BFBBBF1FF0F00F08380059B03EBCB04D6
:10BAE000019455B36A68A9682B46ED69CEEB02064E
:10BAF00026F07F4646453ED8314419605F609F601E
:10BB000083F810C0DF61002866D006688E4244D2F8
:10BB10008246019C03E016688E4245D29246DAF8CE
:10BB20001C20891B002AF6D10194DA6102461960B3
:10BB30001046CAF81C30002DD4D1019A13785278DF
:10BB40009A42C2D0019E5A1C96F802A07168D2B2E5
:10BB500092453446327008BF224603EB430308BFC8
:10BB6000157011F8332001EBC306012A73681FD04A
:10BB700002461046DFE7C2EB0E0222F07F428A4205
:10BB800002D2891A1960B9E71F605F609F6083F86D
:10BB900010C0DF6100B306680021711A1A46016007
:10BBA0009946D8611046C6E7761A01941660BCE73C
:10BBB00093F810A0BAF1000FDAD1B2685A60F168B8
:10BBC00099603469DC60049C76699E61002C8DD09C
:10BBD000C3F804A0524689E71A4699461046AAE7D8
:10BBE0000C4BC3F80090029B8342064652D1039B44
:10BBF000002B4FD1094A0023137007B0BDE8F08F26
:10BC0000E41F0020E51F0020D01F0020E81F0020B7
:10BC1000DC1F0020D41F0020E01F0020E61F0020B2
:10BC2000FEFF7F00D36937461946002B7FF420AF13
:10BC300003F1804303F58833012201269A600A4606
:10BC400004913B46029601E74FF0000CCDF80CC082
:10BC5000AAE6002528462C46B3B11968614500F2D2
:10BC6000D880DE681C60C1EB0C0C0844D9693EB179
:10BC7000019ADD61821822F07F429E605A601D4663
:10BC80000B460A46002BE8D16449029301230A605F
:10BC9000039307E7002E00F0B9806149614BD1F8AA
:10BCA00004451B68604DD6F800802878E21A22F01F
:10BCB0007F42033200285BD042452CBF9A1803EB29
:10BCC0000802574922F07F43C1F84035D1F80425D6
:10BCD000121B1B1B22F07F4223F07F4303329A4248
:10BCE00088D9D1F80435C1F840352F20013800BF7C
:10BCF00000BF00BF00BF00BF00BF00BF00BF00BF4C
:10BD000000BF00BF00BF00BF00BF00BF00BF00BF3B
:10BD100000BF00BF00BF00BF00BF00BF00BF00BF2B
:10BD200000BF00BF00BF00BF00BF00BF00BF00BF1B
:10BD300000BF00BF00BF00BF00BF00BF00BF00BF0B
:10BD400000BF00BF00BF00BF00BF00BF00BF00BFFB
:10BD500000BF00BF00BF00BF00BF00BF00BF00BFEB
:10BD600000BFC3D1314B4FF40032C3F8002141E78B
:10BD70002E4F4FF4803C4FF4003E0126C1F844C3DF
:10BD80002F20C1F804C3C7F880E1C7F800E00E60B7
:10BD9000013800BF00BF00BF00BF00BF00BF00BF31
:10BDA00000BF00BF00BF00BF00BF00BF00BF00BF9B
:10BDB00000BF00BF00BF00BF00BF00BF00BF00BF8B
:10BDC00000BF00BF00BF00BF00BF00BF00BF00BF7B
:10BDD00000BF00BF00BF00BF00BF00BF00BF00BF6B
:10BDE00000BF00BF00BF00BF00BF00BF00BF00BF5B
:10BDF00000BF00BF00BF00BF00BF00BF00BF00BF4B
:10BE000000BF00BF00BFC3D12E7055E7FFF7B2FCE3
:10BE1000F0E6CCEB0101196036E700BFD41F00202B
:10BE200000100140D01F0020F01F002000E100E0C2
:10BE30002DE9F04F12F0030485B003D0072005B0C0
:10BE4000BDE8F08F002A49D08DE80F00FFF792FC83
:10BE50000199029ADFF8A0B0917001EB410502F15F
:10BE60001807ED007E1991729174039B1E49DFF84B
:10BE70008CA0DFF88090DFF88880DFF888C0DFF8DA
:10BE800088E0D66035445561CBF800304FF4801619
:10BE90006023032514705470576014725472147424
:10BEA0005474C9F800208AF80050C8F800408CF893
:10BEB00000408EF800400D4FC1F8806181F81433C6
:10BEC0000E600098C7F8080581F81133084AD7F8C2
:10BED00004351360204605B0BDE8F08F054B072000
:10BEE0001A6005B0BDE8F08F00E100E000100140ED
:10BEF000D01F0020E01F0020D81F0020DC1F0020E2
:10BF0000D41F0020E41F0020E51F0020074B1B6802
:10BF100023B12AB120B10368187C18B108207047FA
:10BF20000720704759745A61704700BFE01F002016
:10BF3000304B1B6823B118B1042903D80720704780
:10BF400008207047F0B54469002C4DD02A4C457C40
:10BF50006468012DC4F308040CBF0F46002794B198
:10BF6000103C65B2002D38DB05F1604404F56144F6
:10BF700094F800436409E4B2012C39D0032C0CBFBF
:10BF80000824102400E0102423445C7893F802E095
:10BF90001E78651CEDB2AE4508BF0025AE4225D027
:10BFA00004EB4404D3F804E0E4001EEB04061DD0C7
:10BFB0004FF0010C0EF804C0DFF848E070600F4C41
:10BFC000DEF80405B0604FF4801EF16037617261E5
:10BFD0005D70C4F800E10020F0BD094D04F00F04CD
:10BFE00025442C7E6409C6E70820F0BD0420F0BD7E
:10BFF0000024C9E7E01F002000ED00E000E100E0C0
:10C00000FCEC00E000100140264B1A68F2B1034638
:10C01000E0B14169D1B1F0B50020234918744968F5
:10C02000C1F30801A1B1103948B2002833DB00F197
:10C03000604101F5614191F800134909C9B2012934
:10C0400027D003290CBF0821102102E008207047E7
:10C0500010210A445178957810784C1CE4B2A5421E
:10C0600008BF0024A04212D001EB41015068C90072
:10C0700010EB010E0BD00D4D022747544FF48016E4
:10C08000CEF804305470C5F800610020F0BD0420E3
:10C09000F0BD0021DDE7064801F00F010844017EF4
:10C0A0004909CBE7E01F002000ED00E000E100E0DF
:10C0B000FCEC00E00A7B4B6810B40C68002A0ABF55
:10C0C000234600220122027103605DF8044B704791
:10C0D00010B40279034652B148681A688968841A14
:10C0E0008C4210D9881818605DF8044B70470468BA
:10C0F00008688A68211A91420BD8012218601A71C7
:10C100005DF8044B7047002218601A715DF8044B0B
:10C110007047A01A18605DF8044B7047002810B4EF
:10C1200018DB00F1604303F561434901C9B283F8AC
:10C130000013C3B24009800000F1604000F5614087
:10C1400003F01F0201239340C0F8803103605DF8C3
:10C15000044B7047C3B2044A03F00F044901224460
:10C16000C9B21176E6E700BFFCEC00E038B5194C27
:10C1700094F854500DB1082038BD4FF0FF33FF2222
:10C1800023636363A363E36323646364A364E3647B
:10C190000620032123606360A360E3602361636181
:10C1A000A361E361236284F850306362A36284F880
:10C1B0005230E36284F8533084F85120FFF7AEFF29
:10C1C000054A4FF000410123C2F8041384F85430AB
:10C1D000284638BDF41F002000600040034B93F850
:10C1E0005400003018BF0120704700BFF41F00202A
:10C1F000F0B5634C251895F93030002B01DB082091
:10C20000F0BD91F803E09446BEF1000F56D02368CC
:10C21000013300F0AD80082600256B1C584F54F800
:10C220002320013251D0AB1C9E4245D957F8232020
:10C2300001324AD0EB1C9E423ED957F823200132EE
:10C2400043D02B1D9E4237D957F8232001323CD0D2
:10C250006B1D9E4230D957F82370013735D0AB1D86
:10C260009E4229D954F82320454F01322DD0EB1D91
:10C270009E4221D957F82320013226D005F1080328
:10C280009E4219D957F8232001321ED005F1090327
:10C290009E4211D957F82320013216D005F10A0326
:10C2A0009E4209D957F8237001370ED00B35AE42A4
:10C2B00002D9E36A013307D00420F0BD236A0133B9
:10C2C0004ED00C260825A8E70B232618DDB244F82B
:10C2D00023C086F83050BEF1000F02D1234483F80A
:10C2E00048008B78ABB94A784FF0A04600F5E07370
:10C2F000920046F82320CB78ABB96AB2083A1444CE
:10C30000097894F8502042EA811284F850201846A7
:10C31000F0BD830003F1A043D3F8002722F002020E
:10C32000C3F80027E7E76BB29B0003F1804303F5F6
:10C33000C0430A78D3F8101521F4473121F4407135
:10C34000C3F810151204000202F44031D3F810456E
:10C3500000F4F8520A432243C3F810250020F0BD30
:10C36000082685F830603346C4F820C03546B5E766
:10C37000002385F83030C4F800C01D46B1E700BF87
:10C38000F41F0020F0B42E4D2E1882B096F8302005
:10C3900053B2072B1CDD2B4493F848309B09032B29
:10C3A00040D0012B0CBF4FF400314FF440318000DE
:10C3B00000F1A040D0F8002722F44032C0F8002756
:10C3C000D0F800370B43C0F8003702B0F0BC70471C
:10C3D000072AFAD8980000F1804000F5C04003F128
:10C3E00040029200D0F8104592B202F1804200273C
:10C3F00044F0010402F5C042C0F8104501970198CD
:10C4000017600029E1D096F9302055F82220002A43
:10C41000DBD001220B4902FA03F3C1F8043302B066
:10C42000F0BC70474FF0A0420123D2F810258340A2
:10C43000134214BF4FF440314FF40031B7E700BF4F
:10C44000F41F0020006000404FF0A043D3F81035E7
:10C4500023FA00F000F00100704700BFF0B5B94BBF
:10C460001A68012A83B000F0D1800024B64B1A6804
:10C47000012A00F0DD80B54B1A68012A00F0EA803D
:10C48000B34B1A68012A00F0F780B24B1A68012AF0
:10C4900000F00481B04B1A68012A00F01181AF4B03
:10C4A0001A68012A00F01E81AD4B1A68012A00F0BB
:10C4B0002B81AC4B1A68012A00F03881002514F05A
:10C4C000FF0F17D0E20700F16081A30700F16C8134
:10C4D000670700F17881260700F18481E00600F10A
:10C4E0009081A10600F19C81620600F1A8812306DB
:10C4F00000F13E81002C01DB03B0F0BD9A4C94F8B2
:10C500005030FF2B1BD0DBB223F0C000221892F971
:10C51000302054F822C0BCF1000F10D0870007F182
:10C52000A0470122D7F8006782402A424FEA9311C0
:10C53000C6F3014600F0A681022E00F0E58194F8D2
:10C540005130894AFF2B1BD0DBB223F0C0001118F9
:10C5500091F9301052F821C0BCF1000F10D08700C3
:10C5600007F1A0470122D7F8006782402A424FEA2C
:10C570009311C6F3014600F07281022E00F0BC81D7
:10C5800094F85230784AFF2B1BD0DBB223F0C00066
:10C59000111891F9301052F821C0BCF1000F10D0E1
:10C5A000870007F1A0470122D7F8006782402A429E
:10C5B0004FEA9311C6F3014600F08B81022E00F082
:10C5C0009F8194F85330684AFF2B95D0DBB223F05B
:10C5D000C000111891F9301052F82170002F8BD043
:10C5E000820002F1A0420124D2F8006784402C426C
:10C5F0004FEA9311C6F3014600F05781022E7FF4F3
:10C600007BAF032900F08D81B84775E75749D1F812
:10C61000044314F001043FF429AF002119601B68A2
:10C620000093009B484B14461A68012A7FF423AFFD
:10C630004E4AD2F8042391077FF51DAF00221A60FD
:10C640001B680093009B414B1A68012A44F00204C6
:10C650007FF416AF454AD2F8042352077FF510AF96
:10C6600000221A601B680093009B394B1A68012A4C
:10C6700044F004047FF409AF3C4AD2F804231707BE
:10C680007FF503AF00221A601B680093009B314BBB
:10C690001A68012A44F008047FF4FCAE334AD2F849
:10C6A0000423D6067FF5F6AE00221A601B680093BD
:10C6B000009B294B1A68012A44F010047FF4EFAE66
:10C6C0002A4AD2F8042395067FF5E9AE00221A60C3
:10C6D0001B680093009B214B1A68012A44F0200438
:10C6E0007FF4E2AE214AD2F8042350067FF5DCAE97
:10C6F00000221A601B680093009B194B1A68012ADC
:10C7000044F040047FF4D5AE184AD2F80423110651
:10C710007FF5CFAE00221A601B680093009B114B7F
:10C720001A68012A44F080047FF4C8AE00221A601F
:10C730001B6801934FF0A043019AD3F8105544F0C1
:10C740000044BCE600610040046100400861004014
:10C750000C6100401061004014610040186100400D
:10C760001C6100407C610040F41F0020006000401C
:10C770006D4B6E4AD3F82C05D3F82C15D369C0F352
:10C780000420C1F301419847B4E6674B674AD3F8E8
:10C790001005D3F810151368C0F30420C1F301414C
:10C7A0009847A3077FF594AE5F4B604AD3F8140512
:10C7B000D3F814155368C0F30420C1F3014198471E
:10C7C00067077FF588AE584B584AD3F81805D3F859
:10C7D00018159368C0F30420C1F301419847260758
:10C7E0007FF57CAE504B514AD3F81C05D3F81C158D
:10C7F000D368C0F30420C1F301419847E0067FF5F8
:10C8000070AE494B494AD3F82005D3F82015136977
:10C81000C1F30141C0F304209847A1067FF564AE3F
:10C82000414B424AD3F82405D3F824155369C0F389
:10C830000420C1F30141984762067FF558AE3A4B98
:10C840003A4AD3F82805D3F828159369C0F3042091
:10C85000C1F30141984723067FF54CAE88E7032ECC
:10C860007FF48EAE032949D14FF40036D7F8002764
:10C8700022F44032C7F80027D7F800373343C7F80F
:10C8800000373BE0032E7FF45AAE03293ED14FF42C
:10C890000036D7F8002722F44032C7F80027D7F82F
:10C8A00000373343C7F8003730E0032E7FF424AE5F
:10C8B00003297FF4A9AE4FF40035D2F8004724F4E1
:10C8C0004034C2F80047D2F800372B43C2F8003793
:10C8D0009AE6032E7FF475AE032913D14FF4003688
:10C8E000D7F8002722F44032C7F80027D7F80037DE
:10C8F0003343C7F8003705E0032909D0E0473FE696
:10C9000003290BD0E0475CE6032904D0E04716E694
:10C910004FF44036AAE74FF44036BAE74FF44036BA
:10C92000DEE74FF44035C8E700600040F41F002008
:10C93000F0B59C4C237F85B0002B74D19A4AD2F875
:10C940000413890548D4984BD3F80423520710D513
:10C95000964A116869B1E17D9248002940F008814A
:10C960001160D3F81835627EE17D8E4B914200F064
:10C97000E3808F4B1A68A2B1A28AA17D894892B246
:10C9800091424FF000021A6040F29280828A838ABC
:10C990008568854992B20133AA5C9BB28382C1F853
:10C9A0001C25844B1A68AAB1A27E00211960002AB6
:10C9B00079D1E27D7B4B6AB15A7ED9688DF8082027
:10C9C0000020012201918DF80020D87593E806001F
:10C9D0006846904705B0F0BD774908680028B2D096
:10C9E000A07E0B604FF40173C2F8083328B903F13D
:10C9F000804303F5F05301221A606B4A02238DF83D
:10CA00000030D2F88034C2F88034E07DE2680393CD
:10CA10008DF808000023019221686268E37568467A
:10CA200023769047A5E7644A1368002B4FD1634AE9
:10CA3000116839B15C481360D0F83C25E17DD2B271
:10CA4000914260D05B4B1A68A2B1E17D554800224B
:10CA50001A6079B1A3F5A273C168D3F83C358DF89B
:10CA60000830012301918DF80030C27590E80A006A
:10CA700068469847524B1A68002AABD0A17D4948B6
:10CA800000221A600029A5D047498368D1F84C15C7
:10CA90008DF808100193827590E80A008DF8002047
:10CAA0006846984796E7A3F5A27301221A6080E7CB
:10CAB00000293FF476AF83688DF8081001938275E2
:10CAC00090E80A008DF800206846984769E700233F
:10CAD0003549136002208DF80000D1F88024C1F898
:10CAE00080240392D1F83C15E2688DF80810019279
:10CAF00021686268E3756846237690472D4B1A6873
:10CB0000002AB7D0A1E7277E002F3DD0D0F8002221
:10CB1000E77522F02007E6682569C0F80072012059
:10CB20008DF808108DF8000023762168019668467C
:10CB3000E5606368984785E71A7E002A44D19B7EAA
:10CB400013B9204B01221A60174AE06863684FF45A
:10CB50000171C2F80813627E8DF80820012201904D
:10CB60008DF80020216800226846E275984700E7AA
:10CB700000211160427ED3F81855437EC16801330D
:10CB8000DBB28D544376EEE6E2688DF8081001239F
:10CB90008DF80030019294E80A00E77568469847DE
:10CBA00050E700BF4C20002000200040082100403A
:10CBB0001C2100404421004024210040102100405D
:10CBC0002021004004200040D968587E01910121B5
:10CBD0008DF808008DF800101E69DA7593E82200C0
:10CBE00000226846DE601A765A76A847C1E600BF82
:10CBF00029DF704728DF704730B1112805D1114A6D
:10CC0000136843F008031360704770B502460E487E
:10CC10000E49037809680E4E03EB830382B09B0034
:10CC2000C5180091EC686B69297904EB4404284627
:10CC30000C3056F82440A047064B04221A7002B06C
:10CC400070BD00BFEC2200206C200020F8220020E4
:10CC5000D0220020F12200202DE9F0475B4D5C4FEF
:10CC60002B785C4CDFF888A182B0032B50D8DFE82A
:10CC700003F0645F02522378DFF864914FF0805E26
:10CC800003EB8303DEF81000D9F8008004EB830384
:10CC900080B21A69B2FBF0F03860D988DEF8103043
:10CCA000013A0A449BB2B2FBF3F398424A4B08BFE5
:10CCB00028F001081B680CBF48F0020828F00308A0
:10CCC000C9F8008013B918F0020F75D0434A00214B
:10CCD0004FF0102311705B695A1C64D04FF08052E2
:10CCE000106980B2B3FBF0F34FF08051013B0A6949
:10CCF000086992B202FB03F380B2B3FBF0F0FFF7D6
:10CD000079FF28B1112831D148F00803C9F8003063
:10CD100002B0BDE8F0873868FFF76CFF0028F7D055
:10CD2000112823D12E4A136843F008031360EFE75C
:10CD300002B0BDE8F04700F017BC2A482A496278E3
:10CD4000002303600B60002AE2D02278274902EB1F
:10CD5000820204EB82021379D2880A60032B26D068
:10CD6000042B24D0012BD3D12B707EE72378DFF85E
:10CD70007C8003EB83039B0004EB030CE646DCF8AA
:10CD80000C20DCF814309CF80410D8F800600096F1
:10CD900002EB420C02465AF82CC00EF10C00E047A0
:10CDA00004232B7061E74FF080535B699CE702B06E
:10CDB000BDE8F04700F01EB8084B02221A70FFF7DA
:10CDC00019FF02B0BDE8F047FFF716BFF1220020BF
:10CDD000042300206C20002000230020F0220020EB
:10CDE000EC220020FC220020C8220020F822002093
:10CDF000D02200202DE9F043504A51491378514E7A
:10CE000003EB830302EB83034FF08057DD681A695D
:10CE1000B3F806E01C89386905EB450301EB830391
:10CE200081B2B3F808805889D3F80490B2FBF1FCC2
:10CE30000EEB040301FB1C214FF0000C00FB0890DB
:10CE40001344C6F800C009BB396989B28E4536D093
:10CE500083425ED0032D32D03D69DFF8F4E02244F6
:10CE6000ADB2B2FBF5F105FB11229208CEF800201D
:10CE70003A6992B2B3FBF2F102FB113272BB324B50
:10CE800002221A70BDE8F043FFF7E6BE032D16D06C
:10CE90003D69DFF8BCE02244ADB2B2FBF5F105FB21
:10CEA00011229208CEF8002083423A69E7D092B26C
:10CEB000B3FBF2F102FB1132002AE0D00EE04FF09A
:10CEC000805322491B69204803249BB20470B2FBA3
:10CED000F3F20A60BDE8F043FFF7BEBE4FF08054A6
:10CEE0009BB22169226980B289B292B2B0FBF1F1A2
:10CEF000B3FBF2F291421CD02269206980B2B3FBED
:10CF0000F0F100FB113392B29BB2D31A9B0833604D
:10CF1000B5E7002CD3D0032DD1D03B690C48224477
:10CF20009BB2B2FBF3F103FB11239B0803603B6947
:10CF3000A5E7C31A9B083360A1E700BF6C2000205F
:10CF4000D0220020CC220020F12200200423002047
:10CF5000002300202DE9F843214CBDF820C067785C
:10CF60001E2F37D094F800E0DFF87C9026460EEBB9
:10CF700007041D2CC8BF1E3C4FF0140808FB0464B6
:10CF800099F800506261207103C904F10C02E3803A
:10CF90007B1C7370A4F808C082E80300104BE5B94D
:10CFA00008FB0E3E0F4A9EF80430BEF806101160D2
:10CFB000032B0AD0042B08D0012B0ED189F80030A6
:10CFC000FFF74AFE2846BDE8F883FFF713FF28461F
:10CFD000BDE8F8830420BDE8F8830020BDE8F883AD
:10CFE0006C200020F8220020F1220020F0B5294A10
:10CFF000136813F0080583B00BD027482749007841
:10D0000051F8201023F00803136003B0BDE8F0408E
:10D010000847234C207800EB800080002318197902
:10D0200004292ED0DA681F4F1F4E3F685B690097B6
:10D0300002EB4202204456F822600C302A46B047E8
:10D040002378617803EB83020133DBB204EB8202C5
:10D050001E2B4FF0020618BF2370144B157101F1FF
:10D06000FF31D580556115811561D6604FF0000202
:10D07000617008BF25701A7003B0BDE8F040FFF77B
:10D08000EBBD0A4B01221A7003B0BDE8F040FFF778
:10D09000E3BD00BFEC220020F0220020AC2D0200F6
:10D0A0006C200020F8220020D0220020F122002055
:10D0B00070B54FF0102382B05B695A1C3FD04FF01F
:10D0C0008052106980B2B3FBF0F34FF080521E49DA
:10D0D00010690C6811691269013B80B289B200FBCA
:10D0E00003F0C2F38D0204FB01F1FFF781FD30B1C3
:10D0F000112806D1154A136843F00803136002B0E3
:10D1000070BD134C134A23781268009203EB83031B
:10D110009B00E5182C46EA6829796B690E4E02EBF4
:10D120004205024604F10C0056F82540A0470B4B7F
:10D1300004221A7002B0BDE87040FFF78DBD4FF0B9
:10D1400080535B69C1E700BF04230020EC2200206C
:10D150006C200020F8220020D0220020F1220020A4
:10D1600070B5244B4FF080511A6808694FF01023B6
:10D17000013A5B6980B202FB00F05A1C14BF0969D6
:10D180004B691D4A1CBF89B2B3FBF1F34FF08051CC
:10D19000013B0969126889B282B001FB03F1FFF714
:10D1A00027FD30B1112806D1144A136843F0080353
:10D1B000136002B070BD124C124A237812680092BC
:10D1C00003EB83039B00E5182C46EA6829796B6919
:10D1D0000D4E02EB4205024604F10C0056F82540C4
:10D1E000A0470A4B04221A7002B0BDE87040FFF756
:10D1F00033BD00BF0423002000230020EC220020C8
:10D200006C200020F8220020D0220020F1220020F3
:10D2100070B5224D2C68220782B015D4204AA3078E
:10D22000204B106848BF44F001044FF0020248BF91
:10D230002C601A70FFF7DEFC20B1112810D144F0E9
:10D2400008042C6002B070BD164A174B127853F8D0
:10D25000223024F008042C6002B0BDE8704018476A
:10D26000124C134A23781268009203EB83039B004D
:10D27000E5182C46EA6829796B690E4E02EB4205E7
:10D28000024604F10C0056F82540A0470A4B042240
:10D290001A7002B0BDE87040FFF7DEBCEC2200203F
:10D2A00004230020F0220020AC2D02006C2000207E
:10D2B000F8220020D0220020F122002070B5294C55
:10D2C000237803EB830304EB83031A464FF0805665
:10D2D00032F8081FD888956832694FF01023084447
:10D2E0005B6992B22844B0FBF2F502FB15055A1CAB
:10D2F00014BF316973691C4A1CBF89B2B3FBF1F3D7
:10D300004FF08051013B0969126889B282B001FB7C
:10D310000351FFF76DFC30B1112806D1134A136891
:10D3200043F00803136002B070BD2378104A114E19
:10D330001268009203EB83039B00E5182C46EA6811
:10D3400029796B6902EB4205024604F10C0056F89C
:10D350002540A047084B04221A7002B0BDE8704077
:10D36000FFF77ABC6C200020CC220020EC220020A9
:10D37000F8220020D0220020F122002070B5164BA8
:10D3800082B01868FFF736FC30B1112806D1134A75
:10D39000136843F00803136002B070BD104C114ACB
:10D3A00023781268009203EB83039B00E5182C4658
:10D3B000EA6829796B690C4E02EB4205024604F1DA
:10D3C0000C0056F82540A047084B04221A7002B002
:10D3D000BDE87040FFF740BC04230020EC22002091
:10D3E0006C200020F8220020D0220020F122002012
:10D3F00070B52D4D2D4A2C68210782B00AD51278C0
:10D400002B4B53F8223024F008042C6002B0BDE806
:10D410007040184701214FF0102311705B695A1CAE
:10D420003DD04FF08052106980B2B3FBF0F34FF063
:10D430008052204910690E6811691269013B80B25F
:10D4400089B200FB03F0C2F38D0206FB01F1FFF786
:10D45000CFFB20B1112804D144F008042C6002B0A5
:10D4600070BD154C154A23781268009203EB8303B4
:10D470009B00E5182C46EA6829796B69104E02EB8F
:10D480004205024604F10C0056F82540A0470D4B1A
:10D4900004221A7002B0BDE87040FFF7DDBB4FF008
:10D4A00080535B69C3E700BFEC220020F02200201C
:10D4B000AC2D0200042300206C200020F822002064
:10D4C000D0220020F122002070B54FF0102382B04E
:10D4D0005B695A1C3AD04FF08052106980B2B3FB9E
:10D4E000F0F34FF08051013B0A69086992B202FBE8
:10D4F00003F380B2B3FBF0F0FFF77CFB30B11128EF
:10D5000006D1144A136843F00803136002B070BDDB
:10D51000114C124A23781268009203EB83039B009C
:10D52000E5182C46EA6829796B690D4E02EB420535
:10D53000024604F10C0056F82540A047094B04228E
:10D540001A7002B0BDE87040FFF786BB4FF0805301
:10D550005B69C6E7EC2200206C200020F822002046
:10D56000D0220020F1220020F0B5414C2578AF00F8
:10D570007B194FF0805604EB83033069DA8880B260
:10D58000824283B018D81E46596936F8080FB3682E
:10D5900092081844FFF72CFB30B111282CD1354AE2
:10D5A000136843F0080313603D4404EB8504324BD9
:10D5B000E2881A6003B0F0BD1F46356937F808EFFE
:10D5C0005969B8683669ABB2D21A70441044114434
:10D5D000C6F38D02FFF70CFB30B111282CD1254A80
:10D5E000136843F0080313604FF08053224A1B690D
:10D5F0009BB2136003B0F0BD2378204ADFF884C0EB
:10D600001268009203EB83039B0004EB030E764643
:10D61000DEF80C209EF80410DEF8143002EB420E07
:10D62000024606F10C005CF82E60B047144B042251
:10D630001A70FFF711FBB7E72378104A114E1268F2
:10D64000009203EB83039B00E5182C46EA682979D6
:10D650006B6902EB4205024604F10C0056F82540C6
:10D66000A047074B04221A70FFF7F6FABCE700BF89
:10D670006C200020EC220020C8220020F82200208C
:10D68000F1220020D02200202DE9F0436A4D2C68C1
:10D6900014F0080883B05BD1684E694B96F800C05F
:10D6A0001F684FEA8C0E0EEB0C0206EB82024FF065
:10D6B00080591369D1881089D9F81020013B0B4497
:10D6C0000344002F50D15F4A10684FF08052126916
:10D6D00092B2B3FBF2F398427FD375D0002F74D18E
:10D6E000E6444FEA8E0E7644544C3179042900F01A
:10D6F0009F80F2685448554D00687369009002EBB2
:10D70000420204EB0E0055F822500C303A46A8476E
:10D710002378617803EB83020133DBB204EB8202EE
:10D720001E2B4FF0020501F1FF3118BF2370484B4B
:10D730001771D780576117811761D560617008BF75
:10D74000277000221A7003B0BDE8F043FFF784BAD7
:10D75000404A414B127853F8223024F008042C60E0
:10D7600003B0BDE8F04318473649086892B2B3FBEE
:10D77000F2F28242A9D1394B3649C3F8008044F015
:10D7800001024FF0102381F800802A6059694B1C78
:10D790004BD0D9F810309BB2B1FBF3F34FF080516E
:10D7A0005A1E0B6908699BB203FB02F380B2B3FBFC
:10D7B000F0F0FFF71FFA20B111281ED144F0090440
:10D7C0002C6003B0BDE8F0833FB1224B03221A70F6
:10D7D00003B0BDE8F043FFF771BD20491D4B0027A2
:10D7E00002220F601A70FFF705FA0028E9D011280D
:10D7F00003D144F008042C60E3E73378124A134D58
:10D800001268009203EB83039B00F4182646E2683B
:10D810006369217902EB4204024655F8244006F17F
:10D820000C00A0470A4B04228CE7D9F81430B5E766
:10D83000074B012286E700BFEC2200206C2000206D
:10D84000CC22002004230020F8220020D022002037
:10D85000F1220020F0220020AC2D02000023002045
:10D860002DE9F041894E3468230782B000F196809B
:10D870008749884A0B681268581C0860002A4DD1F5
:10D88000854F3B7803EB83039D0007EB050E0EF1FC
:10D89000080C4FF08053DCF80820BEF80680BEF874
:10D8A00008101B69013A42440A449BB2B2FBF3F3ED
:10D8B0009842C0F08280794B7CD0D3F80080B8F1D8
:10D8C000000F00F0A68014F0010340F09A80744825
:10D8D0004FF0102244F001010370316053695A1C6B
:10D8E00000F0CC804FF08052106980B2B3FBF0F3AF
:10D8F0004FF08051013B0A69086992B202FB03F3C1
:10D9000080B2B3FBF0F0FFF775F920B1112863D1B5
:10D9100044F00904346002B0BDE8F081604904209D
:10D9200008704FF080554FF010212869496980B286
:10D930004F1C08BF696903FB00F018BF2B694FF04B
:10D9400080551CBF9BB2B1FBF3F14B1E296989B214
:10D9500001FB03F1FFF74CF90028DCD0112835D08A
:10D960004D4C504A23781268009203EB83039B00CE
:10D97000E5182C46EA684C4E29796B6902EB4205A2
:10D98000024604F10C0056F82540A047474B0422FC
:10D990001A7002B0BDE8F041FFF75EB9404A444B4F
:10D9A000127853F8223024F00804346002B0BDE845
:10D9B000F04118471B68002B85D1394B02221A70A1
:10D9C000FFF718F90028A6D0112805D144F0080463
:10D9D000346002B0BDE8F0813B78324A324D1268C3
:10D9E000009203EB83039B00FC182746E268217931
:10D9F000636902EB4204024655F8244007F10C002B
:10DA0000C3E7274B03221A7002B0BDE8F041FFF7CD
:10DA100055BC9EF80410042934D0DCF804202148B9
:10DA2000214C0068DEF81430009002EB42027819B5
:10DA300054F822400C304246A0473B78797803EBFB
:10DA40008302013307EB8202DBB21E2B4FF002048C
:10DA500001F1FF3182F80480A2F80680C2F8148038
:10DA6000A2F80880C2F81080D46018BF3B707970AB
:10DA700008BF87F800800D4B002289E74FF08053E4
:10DA80005B6935E7094B012282E700BFEC220020E9
:10DA900004230020002300206C200020CC22002042
:10DAA000F0220020F8220020D0220020F1220020C5
:10DAB000AC2D0200F0B52A4C2A4D20782B682A4E56
:10DAC0002A4F83B000EB8000800000932318184693
:10DAD000DA6819795B6902EB42020C3056F8226071
:10DAE0000022B04723786178214E03EB8302013393
:10DAF00004EB8202DBB200201E2B10611071D0807B
:10DB00001081506101F1FF314FF0020E04BF20700F
:10DB100003461848C2F80CE0C9B24FF00002617029
:10DB200018BF237002703A60326009B903B0F0BDCB
:10DB300003EB830304EB83042379E2882A60032B3D
:10DB400009D0042B07D0012BF0D1037003B0BDE83E
:10DB5000F040FFF781B803B0BDE8F040FFF74AB9E5
:10DB60006C200020F8220020D0220020FC2200207F
:10DB7000C8220020F12200202DE9F041674D2B78CA
:10DB800013F0FB0F82B01CD00228044613D00328E8
:10DB900017D163490A6810071FD5022B14D0032B35
:10DBA00001D0012B0DD122F008020A6002B0BDE8BD
:10DBB000F041FFF751B8022B06D0032B59D0012BAF
:10DBC00017D002B0BDE8F081564A574B127853F88F
:10DBD000223002B0BDE8F041184754490A680132CA
:10DBE000B2F57A7F0A6078D0022BDFD14D4A504BD4
:10DBF000ECE74B4A13681E0766D44E4F4E4A3B78FB
:10DC0000166803EB83039A00BB18D9888E1BB6B243
:10DC1000DE80002E5CD1D868DFF824E11979D3F8D2
:10DC20001480DFF820C1DEF80030009300EB400ED6
:10DC3000B818434632460C305CF82EC0E0473B78BB
:10DC4000797803EB83020133DBB207EB82021E2BF0
:10DC500001F1FF3118BF3B704FF000031671D68001
:10DC600056611681D4601661797008BF3E702B70C2
:10DC70009CE72B4A13681C0726D42E4C2F4B267882
:10DC800018684FEA860E0EEB060104EB81010130A5
:10DC90000A6918604FF08053CF881B690989013ADF
:10DCA0003A440A449BB2B2FBF3F39842FFF47EAFCE
:10DCB0002ED0764404EB86042379042B25D002B0C1
:10DCC000BDE8F041FFF7F6BE23F0080313606DE7EF
:10DCD00002B0BDE8F041FFF747BC1648184A037888
:10DCE0001268009203EB83039B00C418154EE26890
:10DCF0006369217902EB420220460C3056F822403B
:10DD00000D22A04704232B7050E701232B704DE711
:10DD10000D4B1B68002BCCD148E700BFF12200203F
:10DD2000EC220020F0220020982D0200FC2200208E
:10DD3000AC2D02006C200020C8220020042300200B
:10DD4000F8220020D0220020CC22002022490022EC
:10DD5000F0B50B4601F516740A704A7002201A716C
:10DD6000DA80D8601A615A611A811433A3424FF0E5
:10DD70000001F4D1194A4FF0102311805B695A1C3D
:10DD800026D04FF08052126992B2B3FBF2F24FF0FC
:10DD90008051134B0969134F134E144D144CDFF887
:10DDA00054C0DFF854E089B2033A002001FB02F2CC
:10DDB0000421387030602860186018815881D8605C
:10DDC0009882D8822160CCF80020CEF80000F0BD07
:10DDD0004FF080535A69DAE76C200020E8220020D7
:10DDE000D0220020F1220020FC220020C8220020A6
:10DDF000EC220020F422002004230020354B1B6875
:10DE00005B0701D40820704770B169B103685BB14A
:10DE10002DE9F0414FF080548388226992B29342F9
:10DE200004D90720BDE8F0810E2070470F2BF8D9E8
:10DE3000C288002AF5D04FF010254FF0805E6D6942
:10DE4000254EB5F1FF3F14BF2469646937681CBFD4
:10DE5000A4B2B5FBF4F4DEF81050013CADB203FB04
:10DE6000027205FB04F4A242DBD813F00303D8D1FD
:10DE70001A4CB4F800C0BCF1020F28D00C224F603D
:10DE8000C1F800C002FB0CF2154D0168A950A91899
:10DE9000B0F8068082884F600A81A1F80A80DEF817
:10DEA0001050DEF81000DEF81010ADB208FB025280
:10DEB00089B20CF1010C80B2013A92FBF0F201FB45
:10DEC0000277A4F800C037601846BDE8F08104204E
:10DED000BDE8F081EC220020F4220020E82200209E
:10DEE000D0220020134B1B685B0701D40820704729
:10DEF00028B122B10368012B03D9072070470E20F7
:10DF0000704770B403EB4304A4000B4D2E592C440E
:10DF10004EB1466865892089646800FB016105FB94
:10DF20000040814202D3072070BC704713605160EB
:10DF30000020F9E7EC220020D0220020F0B51D4C93
:10DF40002468670783B002D4082003B0F0BD31B164
:10DF500028B10468012C05D9072003B0F0BD0E20BC
:10DF600003B0F0BD04EB4404A400134D2E592C441F
:10DF7000002EF1D0268965896468476806FB054450
:10DF8000A742E9D2002AE7D09642E5D3D418A642A8
:10DF9000E2DB8E0701D01020D7E79D07FBD1BC073D
:10DFA000F9D11C46009413460A4601460120FEF7AB
:10DFB000D1FFCAE7EC220020D0220020F0B51D4C92
:10DFC0002468670783B002D4082003B0F0BD31B1E4
:10DFD00028B10468012C05D9072003B0F0BD0E203C
:10DFE00003B0F0BD04EB4404A400134D2E592C449F
:10DFF000002EF1D0268965896468476806FB0544D0
:10E00000A742E9D2002AE7D09642E5D3D418A64227
:10E01000E2DB8E0701D01020D7E79D07FBD1BC07BC
:10E02000F9D11C46009413460A4601460420FEF727
:10E0300091FFCAE7EC220020D02200202DE9F04118
:10E04000254C2468660782B003D4082002B0BDE8DE
:10E05000F08139B130B10C68012C07D9072002B02A
:10E06000BDE8F0810E2002B0BDE8F08104EB44046D
:10E07000A4001A4F3D593C44002DEFD026896589F4
:10E080006468D1F804E006FB0544A645E6D2002A00
:10E09000E4D09642E2D3D418A642DFDB850701D054
:10E0A0001020D3E79C07FBD11EF00304F8D188466B
:10E0B00003EB0E011646054604F02EFED8F80020AC
:10E0C00000960C2303FB02F240462B460221BD586A
:10E0D0002246A8472046B9E7EC220020D0220020A3
:10E0E000204B1B685B0701D40820704720B10368F0
:10E0F000012B03D9072070470E20704770B503EB42
:10E1000043039B00184AD45882B013444CB11A46BA
:10E110005D6832F8086F4468538806FB03539C42DD
:10E1200002D3072002B070BDA20701D01020F9E78A
:10E13000651BB5FBF6F206FB1255002DF1D1B1FBC4
:10E14000F6F206FB121292B2002AEAD10029E8D0B8
:10E150000C44A342E5D30B46009201460320FEF790
:10E16000F9FEDFE7EC220020D0220020064B1B68DE
:10E170005B0701D40820704720B1044B5B78036033
:10E18000002070470E207047EC2200206C200020F9
:10E190004FF0A042D2F80435D94301F4002103F432
:10E1A0000023C2F80815C2F80C3570470D282DE978
:10E1B000F047044607D00E2837D00F2837D0102854
:10E1C00037D0BDE8F0870025012911D020D30229DE
:10E1D000F7D1214B05EB45051D446E78002EF0D09C
:10E1E0001E4B1B68002BECD03046BDE8F0471847AB
:10E1F000DFF864806F007B1908EB030218F80360F6
:10E200005378C3B92F444744154BBA785A55E5E7BC
:10E210001448FDF7F9FE1049114A05EB45030B447C
:10E22000565D9B789E42CCD1D8E70125CCE70225EC
:10E23000CAE70325C8E70C4BDFF830901968094896
:10E2400001EB810149004A46FDF772FE0028D9D151
:10E2500089F80040D6E700BF842300203C2300203B
:10E2600034230020402300203823002028230020CE
:10E27000C94B1B68DB0700D4704770B5C74B1C78CF
:10E28000172C22D8DFE814F0680075007500AE0086
:10E29000D500F5001A013D013900220039002200A5
:10E2A0001800500150015001500150014E0058001B
:10E2B0009E007801180018004FF0A0434FF4F011B1
:10E2C0000022C3F80C15C3F8082570BD4FF0A0421A
:10E2D000B34CD2F80435B348D94301F4802103F498
:10E2E0008023C2F80815C2F80C352168002201EB22
:10E2F0008101BDE87040FDF71BBE4FF0A042A84C65
:10E30000D2F80435A748D94301F4802103F48023CF
:10E31000C2F80815C2F80C3521680022BDE870402B
:10E32000FDF706BE4FF0A0434FF4F0110022C3F8F2
:10E330000815C3F80C2570BD4FF0A04300224FF420
:10E34000E0104FF40031C3F80805C3F80C25C3F8FA
:10E350000C15C3F8082570BD934B1B684FF0A04205
:10E36000DB4303F4F0130021C2F80835C2F80C15A2
:10E3700070BD8D4A12684FF0A040D24302F4E01203
:10E380000025C0F80825C0F80C55D0F8042582F403
:10E39000F01212F4003200F03881022C4FF40032F7
:10E3A000C0F808250CBF12212821C0F80C557C4A62
:10E3B0001C7012687B4802FB01F1BDE8704000222E
:10E3C000FDF7B6BD4FF0A04300224FF4D0104FF43C
:10E3D0008021C3F80805C3F80C25C3F80C15C3F851
:10E3E000082570BD704A12684FF0A040D24302F475
:10E3F000E0120024C0F80825C0F80C45D0F8042528
:10E4000082F4F01212F4003200F0F7804FF4003280
:10E41000C0F808250821C0F80C45614A6148126817
:10E4200003241C7002FB01F1BDE870400022FDF7DF
:10E430007FBD5D4A12684FF0A040D24302F4E01263
:10E440000024C0F80825C0F80C45D0F8042582F453
:10E45000F01212F4003200F0C1804FF40032C0F824
:10E4600008252821C0F80C454D4A4E48126804245E
:10E47000D7E74D4A12684FF0A041D24302F4E012B0
:10E480000020C1F80825C1F80C05D1F8042582F454
:10E49000F01212F4003200F0A9804FF40032C1F8FB
:10E4A0000825C1F80C053E4A3E48116805241C7039
:10E4B00049000022BDE87040FDF73ABD3A4A1268B3
:10E4C0004FF0A041D24302F4E0120020C1F8082529
:10E4D000C1F80C05D1F8042582F4F01212F40032D0
:10E4E00075D04FF40032C1F80825C1F80C052C4A4C
:10E4F0002C48116806241C700022BDE87040FDF70E
:10E5000017BD294B1B684FF0A042DB43002103F4E9
:10E51000E0134FF40030C2F80835C2F80C15C2F809
:10E520000C05C2F8081570BD2048FDF76DFDD4F14B
:10E53000110402463ED000283CD11B4E4FF400236C
:10E54000012C336010D0C825194B154917480968AC
:10E5500005FB04F4A3FB04435B0901FB03F1FDF796
:10E56000E7FC336803F4F0134FF0A0420021C2F837
:10E570000C35C2F8081570BD4FF0A04300224FF4CF
:10E58000C0104FF4C021C3F80805C3F80C25C3F828
:10E590000C15C3F8082570BD30230020602300202F
:10E5A00038230020082300202C230020642300208F
:10E5B0001F85EB511A4A13684FF0A040002103F465
:10E5C000F013C0F80835C0F80C15116070BD4FF499
:10E5D0000030C1F80C05C1F8082588E74FF4003178
:10E5E000C0F80C150421C0F808253DE74FF40030B1
:10E5F000C1F80C05C1F8082555E74FF40031C0F803
:10E600000C150221C0F8082507E74FF40031022C51
:10E61000C0F80C150CBF02210421C0F80825C6E67D
:10E620002C23002003780D2B15D00E2B15D00F2B8B
:10E6300004D0102B08BF032301D070470223084ADF
:10E6400003EB4303134458780028F6D0054B1B68AE
:10E65000002BF2D018470023F1E70123EFE700BFBA
:10E66000842300203C230020032803D900230B70BF
:10E6700000207047074A4FF0A04352F82000D3F81B
:10E68000102501238340934314BF012300230B7003
:10E6900000207047C02D0200F8B5BF4B1A6812F079
:10E6A000010201D11046F8BD0446172800F2EA81A4
:10E6B000DFE810F03901490149017C00A400CC00D9
:10E6C000F20058002F0018002F00180017017C01DD
:10E6D0007C017C017C017C01A40125012F01440007
:10E6E0006F006F004FF0A042AC4CD2F80435AC483C
:10E6F000D94301F4802103F48023C2F80815C2F83D
:10E700000C352168002201EB8101BDE8F840FDF7DE
:10E710000FBC4FF0A042A14CD2F80435A048D94319
:10E7200001F4802103F48023C2F80815C2F80C35E7
:10E7300021680022BDE8F840FDF7FABB99484FF088
:10E74000A0434FF4C01200214FF4C0251524C3F894
:10E750000825C3F80C150A46C3F80C55C3F808156C
:10E7600004709FE7904B8F4C1B684FF0A041DB4338
:10E77000002003F4E0134FF400360725C1F80835F4
:10E780000246C1F80C05C1F80C65C1F808052570F2
:10E7900088E74FF0A04383484FF4F0120021C3F8FC
:10E7A0000C25C3F808150A4604707BE77E4B1B68EE
:10E7B0004FF0A042DB4303F4E0130020C2F8083519
:10E7C000C2F80C05D2F8043583F4F01313F40033C7
:10E7D00000F041814FF40033C2F808350821C2F837
:10E7E0000C056E4A6F4B12686D4803241C7002FBC7
:10E7F00001F1BDE8F8400022FDF79ABB6A4B1B68A7
:10E800004FF0A042DB4303F4E0130020C2F80835C8
:10E81000C2F80C05D2F8043583F4F01313F4003376
:10E8200000F021814FF40033C2F808352821C2F8E6
:10E830000C055A4A5B4B1268594804241C7002FBB1
:10E8400001F1BDE8F8400022FDF772BB564B1B6892
:10E850004FF0A042DB4303F4E0130021C2F8083577
:10E86000C2F80C15D2F8043583F4F01313F4003316
:10E8700000F001814FF40033C2F80835C2F80C15DE
:10E88000464A484B1168464805241C70490000223E
:10E89000BDE8F840FDF74CBB434B1B684FF0A0426E
:10E8A000DB4303F4E0130021C2F80835C2F80C156D
:10E8B000D2F8043583F4F01313F4003300F0B98078
:10E8C0004FF40033C2F80835C2F80C15354B334A03
:10E8D0003348116806241C700022BDE8F840FDF79B
:10E8E00027BB4FF0A0432F484FF4F01200210C2417
:10E8F000C3F80C25C3F808150A460470D2E64FF099
:10E90000A04328484FF4E01200214FF400351324AF
:10E910001DE74FF0A04323484FF4D01200214FF4DD
:10E920008025142413E7204B1E4C1B684FF0A04099
:10E93000DB43002103F4F013C0F808350A46C0F8A1
:10E940000C152170AEE6184B1B684FF0A042DB435C
:10E9500003F4E0130020C2F80835C2F80C05D2F821
:10E96000043583F4F01313F4003369D0022C4FF410
:10E970000033C2F808350CBF12212821C2F80C055B
:10E98000064B084A1B68147003FB01F1044800227F
:10E99000BDE8F840FDF7CCBA302300203823002032
:10E9A00008230020602300202C2300203648FDF798
:10E9B0002BFBD4F1110402462ED068BB334E4FF42A
:10E9C0000023012C336011D0314B324F19682E488F
:10E9D000C82505FB04F3A7FB03435B0901FB03F117
:10E9E000FDF7A6FA3368024603F4F0134FF0A04196
:10E9F0000020C1F80C35C1F8080553E64FF0A043DC
:10EA000025484FF4F01200211224C3F80825C3F85A
:10EA10000C150A46047045E61C490B684FF0A044EB
:10EA2000002003F4F013C4F80835C4F80C0508609E
:10EA300038E64FF40031C2F80C15C2F8083545E746
:10EA40004FF40031022CC2F80C150CBF0221042136
:10EA5000C2F8083594E74FF40031C2F80C150221D2
:10EA6000C2F80835BDE64FF40031C2F80C15042198
:10EA7000C2F80835DDE64FF40031C2F80C15C2F8D3
:10EA80000835FDE600220DE6642300202C2300203B
:10EA9000382300201F85EB5160230020F8B5234D5B
:10EAA000234E244B2860044610F0020031601A60A7
:10EAB0001FD0214B21484FF00D0E0E270F26102599
:10EAC0004A0883F800E00421DF709E715D72FCF754
:10EAD000C3FDF0B1E3070BD54FF0A0434FF4F012A4
:10EAE0000021C3F80825C3F80C15C3F8182510B188
:10EAF000F8BDE207F0D41248124A0021FDF706FAE9
:10EB00000028F5D11048114A0121BDE8F840FDF771
:10EB1000FDB9FCF7F9FD0028DCD101460C4A0D488F
:10EB2000FDF7F4F9E107E2D5D6E700BF3023002076
:10EB3000382300203C23002084230020D02D020015
:10EB4000F02D020071E20100F42D020091E10100BC
:10EB500025E60100F82D0200032801D9072070479F
:10EB6000012A12D0012917D008D30229F6D10D4B62
:10EB700000EB4000034400205A707047094B00EB43
:10EB80004000034400209A707047012901D0002200
:10EB9000E8E700F10D02D2B200EB4003014900208A
:10EBA000CA5470478423002070B41D4E1D4DD6F802
:10EBB00000371D4C1D4910F0010F14BF4FF44032B7
:10EBC000002223F440331343C6F80037D5F800374A
:10EBD00010F0020F23F4403214BF4FF440330023EF
:10EBE0001343C5F80037D4F8003710F0040F14BFF2
:10EBF0004FF44032002223F440331343C4F800376B
:10EC0000D1F8003710F0080F23F4403214BF4FF44E
:10EC1000403300231343C1F80037002070BC704715
:10EC200034000050380000503C00005040000050BC
:10EC300008B50320FFF7B8FF10B1062808BF002071
:10EC400008BD00BF10B50388102B08D0112B05D1CB
:10EC5000264B18680138186038B110BD10BD234C20
:10EC6000206880B10130206010BD02210122FFF731
:10EC700073FF48B3072827D01D4B1B68002BECD02F
:10EC8000BDE81040184701460122FFF765FF48B173
:10EC9000072807D0164B1B6803B19847206801303E
:10ECA000206010BD012002210722FFF755FF08B1A7
:10ECB0000728EFD1002002210422FFF74DFF002892
:10ECC000ECD00728E6D1E9E7012002210722FFF76F
:10ECD00043FF08B10728CFD1002001460A22FFF7E1
:10ECE0003BFF0028B9D00728C6D110BD94230020CF
:10ECF0009023002010B5204B82B00C461860A9B1BB
:10ED000000200DF10601FFF7AFFC08B102B010BD05
:10ED100001200DF10701FFF7A7FC0028F6D19DF8AF
:10ED200007301BBB9DF806301BBB2370134B1868C4
:10ED300010B1002002B010BD02210122FFF70CFF2C
:10ED400008B10728E2D1012002210722FFF704FFC2
:10ED500008B10728DAD1002001460A22FFF7FCFE9D
:10ED60000028E6D0072808BF0020CFE70223237041
:10ED7000DCE70B232370D9E79023002094230020A5
:10ED800076DF704778DF70477ADF70477CDF704747
:10ED90003CDF704748DF70470AB90020704708B56C
:10EDA0001046FCF7D7FC002008BD00BFFCF7D2BC22
:10EDB000044A0548137883F001031946137002F0E2
:10EDC000B9BD00BFC4250020E825002010B51349B7
:10EDD000134C1448FDF77CF9236881B201331248C3
:10EDE000236002F0FFFC30F0080209D043F2040275
:10EDF000904205D043F20142904201D0FCF7AAFCB8
:10EE000022680A4B0A49A3FB02035B0803EB430396
:10EE1000D31A18BF01230B7010BD00BFD0250020EE
:10EE200080250020C8250020E8250020ABAAAAAA3A
:10EE3000601F002008B50C490C48FDF749F9C1B224
:10EE40000B4801F0EBFF30F008020BD043F2040254
:10EE5000904207D043F20142904203D0BDE80840FF
:10EE6000FCF778BC08BD00BF48260020E025002044
:10EE70008C25002010B50446FEF77EFE2046BDE836
:10EE8000104001F0C7BB00BF10B5044603F022F9E3
:10EE90002146144802F0FEFA2146134801F0BEFE56
:10EEA000204602F0C9F82046FFF7CCFE2388102B3D
:10EEB0000AD0112B03D10D4B4FF6FF721A8020465A
:10EEC000BDE8104001F04ABB0720FFF7E5FB08B1A1
:10EED000FCF740FC054BA2881A802046BDE8104094
:10EEE00001F03CBBE82500208C250020621F00209B
:10EEF00008B5037803B108BD054B3B211888FFF71F
:10EF00003FFF0028F7D0BDE80840FCF723BC00BF56
:10EF1000621F0020072808B51CD00A280ED004283C
:10EF200000D008BD114B13211888FFF729FF30F0DE
:10EF30000803F6D0BDE80840FCF70CBC0020FFF742
:10EF4000ABFB80B9FFF774FE50B9FFF721FF002833
:10EF5000F0D108BD01F0D8FC30F00803EAD108BDBB
:10EF6000FCF7F8FBF1E7FCF7F5FBEBE7621F00208D
:10EF700008B5074B1B7803B908BD06490648FDF7DD
:10EF8000A7F8BDE8084081B2044802F0B9BC00BF50
:10EF9000601F00203826002084250020E82500205E
:10EFA00008B530B1032803D10220FFF775FB50B933
:10EFB00008BDFFF771FB50B9FFF73AFE50B9FFF7F4
:10EFC000E7FE0028F4D0BDE80840FCF7C3BBFCF71F
:10EFD000C1FBF1E7FCF7BEFBF1E700BF2DE9F04311
:10EFE0000020A3B003460521C24AFCF721FF08B167
:10EFF000FCF7B0FBC048C14A0121FCF787FF08B10C
:10F00000FCF7A8FBBE48BF4A0121FCF77FFF08B10F
:10F01000FCF7A0FBBC48BD4A0121FCF777FF08B113
:10F02000FCF798FBBA48BB4A0121FCF76FFF08B117
:10F03000FCF790FB032040F6CD41B74AFFF72EFDC9
:10F0400008B1FCF787FB12A90020FFF753FE08B1B7
:10F05000FCF780FB9DF84840B04908204822002377
:10F06000A4F10204B4FA84F4640903F0A1FD08B128
:10F07000FCF770FB0020012112AA03F0E9FD08B1A2
:10F08000FCF768FBA64803F0FBFD08B1FCF762FB48
:10F0900012A803F0FFFD08B1FCF75CFBA14803F0E8
:10F0A000ABFD08B1FCF756FB9F4803F0AFFD08B17C
:10F0B000FCF750FB8DF82440FEF748FE08B1FCF742
:10F0C00049FB09A802F002FF08B1FCF743FB00214D
:10F0D00005220DF14D00FCF735FA9DF84D30934AAD
:10F0E000129243F00103032203F0FD0362F3840351
:10F0F0006FF345130725102401228D488DF84D30FC
:10F1000012A98DF84E508DF84F408DF84C2002F02A
:10F1100081FF08B1FCF71EFB9DF8243085480122D1
:10F1200062F3030362F307138DF8243003F01AFE31
:10F13000804982B209A8FFF729FE08B1FCF70AFB53
:10F1400040F24130FFF71EFE08B1FCF703FB00213F
:10F15000082212A8FCF7F6F94FF4A0744FF40271DC
:10F1600000224FF4C87312A8ADF84840ADF84A1019
:10F17000ADF84C20ADF84E30FFF706FE08B1FCF7B5
:10F18000E9FA00240021382212A8FCF7DBF9012556
:10F190004FF002094FF006084FF0030CDFF8A8E12A
:10F1A00000944FF49677B4262146634B0C9412A832
:10F1B00009AA09940A940B940F94109411948DF851
:10F1C00048908DF84A508DF830508DF84B80ADF84E
:10F1D00058C0CDF85CE00D970E9600F093FF08B193
:10F1E000FCF7B8FA03230021142204A88DF80F308D
:10F1F000FCF7A8F99DF81C409DF81F309DF81DE014
:10F200009DF81E609DF820504C480122002762F3B3
:10F21000030462F303030EF0F00E06F0F00605F0AF
:10F22000F00562F3071462F3071367F3071E67F331
:10F23000071667F307150DF10F0C04A98DF81C4094
:10F240008DF814208DF81F308DF81DE004978DF88F
:10F250001E608DF82050CDF818C002F043F908B1B7
:10F26000FCF778FA0021142209A8FCF76BF99DF845
:10F2700031509DF832409DF834209DF8336030487D
:10F28000012363F3030563F3030463F3030206F04E
:10F29000F006002763F3071563F3071463F30712FF
:10F2A0006FF307164FF0640E09A98DF831508DF8F1
:10F2B00028308DF832408DF834208DF8336009976E
:10F2C0000B978DF830E001F0D5FC08B1FCF742FA5D
:10F2D0004022002112A8FCF735F912A8194902F0C2
:10F2E00033FB9DF884309DF88520012161F30303F1
:10F2F0002CE000BFB8230020202E020035EE0100D4
:10F30000FC2D0200CDED0100282E020071EF01005E
:10F31000242E0200B1ED010015EF01007C26002033
:10F32000001E002089EE010075EE010099ED01003C
:10F3300078260020002E0200A1EF0100E825002021
:10F340008C2500200C2E0200641F002002F0F00229
:10F3500061F307136FF3071212A88DF884308DF84C
:10F36000852001F025FF08B1FCF7F4F93A4B3B4842
:10F37000012551221946642683E844009D601D73CF
:10F38000FCF798FE364B374800244FF08C0E0A22CB
:10F3900019464FF49677C3F800E05F609A601C73DB
:10F3A000FCF788FE304B31481E6019464FF4FA7264
:10F3B0009D605A601C73FCF77DFE21461C2212A83A
:10F3C000FCF7C0F82A4B2B4A9F892B4B12944FF421
:10F3D00020364FF47025032112A88DF85840ADF85F
:10F3E0005670139614958DF854101792189301F0D7
:10F3F000E9FD08B1FCF7AEF920484FF48031002256
:10F40000FCF796FD08B1FCF7A5F91D484FF4004143
:10F410000022FCF78DFD08B1FCF79CF9194842F277
:10F4200066610022FCF784FD08B1FCF793F91648E9
:10F430004FF420310022FCF77BFD08B1FCF78AF97C
:10F44000032000F023FF18B9FFF7A4FC0028FBD02D
:10F45000FCF780F9F8E700BF48260020E0250020EF
:10F46000D0250020C8250020382600208425002033
:10F47000E8250020F1EE0100ADED0100A4250020FB
:10F48000C4260020582600209823002071DF7047F2
:10F4900072DF704779DF70477DDF704765DF704747
:10F4A000F0B50488012C83B007D0148804F1020E53
:10F4B0009E4505D90C2003B0F0BD072003B0F0BD78
:10F4C0000578012D04D1457802352544AB42F1D3AE
:10F4D000023B0F461C1B02A9A4B2054621F8024DAF
:10F4E00007EB0E001646FFF7D7FF0028E3D12B7875
:10F4F000022B17D0012B11D023460821FE2BD9D87F
:10F500003288581CB8543288013292B23280B954D1
:10F5100032880132134433800020CCE76B789C4260
:10F52000EBD2E9E7BDF806309C42E5D30921E5E7D7
:10F530002DE9F04F85B083460E9D00882C880194FC
:10F54000BDF83C9000284ED000278A4616469846C3
:10F550003C4604E0BBF800300134A34226DDDBF872
:10F56000043053F8240003900DF10B0103A800228E
:10F57000FFF794FF18BB9DF80B30B342EAD10FB3ED
:10F580002A8893194B4519DC424403A80DF10B015D
:10F590000127FFF783FF90B92B889DF80B201344B8
:10F5A0002B80BBF800300134A342D8DCDFB12B88BC
:10F5B000019A013B9B1A9BB2FF2B12D90C2005B07C
:10F5C000BDE8F08F2B885A1C334402334B4592B26E
:10F5D000F4DC2A8008F802A02A88013292B22A803C
:10F5E000D2E708F80230002005B0BDE8F08F00BF78
:10F5F0002DE9F047002317881380446B84B0BCB119
:10F60000022F247803D80C2004B0BDE8F087022331
:10F610000B70138801339BB211251380CD541388CE
:10F6200001339BB21380CC5414880134A4B21480EB
:10F63000036B002B6FD004F11205BD42E3D81125F6
:10F640000D5514880134A4B2102514800D5514886A
:10F650000134A4B21480DD7B0D5514880134A4B2AA
:10F6600014809D7B0D5514880134A4B214805D7BF9
:10F670000D5514880134A4B214801D7B0D551488D7
:10F680000134A4B21480DD7A0D5514880134A4B27B
:10F6900014809D7A0D5514880134A4B214805D7ACB
:10F6A0000D5514880134A4B214801D7A0D551488A8
:10F6B0000134A4B21480DD790D5514880134A4B24C
:10F6C00014809D790D5514880134A4B214805D799D
:10F6D0000D5514880134A4B214801D790D55148879
:10F6E0000134A4B21480DD780D5514880134A4B21D
:10F6F00014809D780D5514880134A4B214805D786F
:10F700000D5514880134A4B214801B780B5514884D
:10F710000134A4B2148090F82E30002B5FD190F801
:10F720002D300D4606469046002B71D1B378002B44
:10F7300040F0A280F378D3B1E21CBA423FF663AF47
:10F7400002222A55B8F80020013292B20121A8F80D
:10F750000020A954B8F800200A4492B2A8F800206A
:10F76000AB54B8F800400C44A4B2A8F8004072684A
:10F77000D2B1E31CBB4212783FF645AF02232B55B2
:10F78000B8F8003001339BB20A21A8F80030E954E0
:10F79000B8F8003001339BB2A8F80030EA54B8F84A
:10F7A00000300133A8F800303389002B40F011817C
:10F7B000338A002B40F08F81338B002B40F0A681E1
:10F7C000336A002B00F0C580B8F80020911DB942C3
:10F7D0003FF619AF1988052977D8072014E7E51CEB
:10F7E000BD423FF610AF02250D5514880134A4B276
:10F7F0001C2514800D5514880134A4B2013B1480DB
:10F80000032BEAD8DFE813F0610164015E015701C0
:10F810000934BC423FF6F7AE02A8FFF737FE0028D6
:10F820007FF4F2AEB8F800300822EA54B8F800309D
:10F8300001339BB21B22A8F80030EA54B8F800004C
:10F84000013080B2A8F80000062228440DF1090119
:10F8500003F062FAB8F800309DF8082006339BB236
:10F86000A8F8003002B10122EA54B8F8004001348F
:10F87000A4B2A8F8004059E70434BC423FF6C3AE36
:10F8800002A8FFF707FE00287FF4BEAEB8F80030EC
:10F89000BDF808200321E954B8F8003001339BB2C9
:10F8A0001921A8F80030E954B8F8003001339BB2B0
:10F8B000E918A8F80030100AEA544870B8F8004077
:10F8C0000234A4B2A8F8004034E76FF4486C01EBAE
:10F8D0000C0080B24FF27D34A0427FF67EAF588894
:10F8E00005287FF67AAF6FF4486E86441FFA8EFEC5
:10F8F000A6457FF672AF4FF6FF74A14204D0A04236
:10F9000002D081423FF669AF0521A954B8F8002022
:10F91000013292B21221A8F80020A954B8F80020B0
:10F92000013292B2A8F800201988A9542A44090A81
:10F930005170B8F80020023292B2A8F800205B881B
:10F94000AB542A441B0A5370B8F800300233A8F8AD
:10F950000030746AACB3A288B8F80010131D0B44D1
:10F96000BB423FF650AE931CFE2B3FF64CAE03322B
:10F970006A54B8F8003001339BB2FF22A8F8003077
:10F98000EA54B8F8003001339BB2A8F8003022885E
:10F99000EA542B44120A5A70B8F80000023080B2C0
:10F9A000A8F80000A28862B1A16800293FF415AF51
:10F9B000284403F0B1F9A388B8F800201344A8F84C
:10F9C000003096F82C30FBB93378002B6CD11846F8
:10F9D0001AE606F108040221CDF8008001972046BE
:10F9E0000A462B46FFF7A4FD00287FF40DAECDF8A4
:10F9F000008001972046062110222B46FFF798FD34
:10FA000000287FF401AED3E6B46A002C3FF4E5AEE3
:10FA1000A2880232FE2A3FF6F6ADB8F800304FF069
:10FA200000094FF0160A07E0B46A04EB8104A288CB
:10FA30000232FE2A3FF6E7AD0132EA54B8F8003050
:10FA400001339BB2A8F8003005F803A0B8F80030E5
:10FA500001339BB2A8F800302288EA542B44120AE2
:10FA60005A70B8F8003002339BB2A8F80030A18871
:10FA7000E8180A4669B1A3681946002B3FF4ADAEF9
:10FA800003F04AF9A388B8F8002013449BB2A8F801
:10FA9000003009F1010996F82C205FFA89F94A45EE
:10FAA00009EB4901C0D88FE73046294642463B461C
:10FAB000FFF7F6FCA8E503230B5514880134A4B224
:10FAC00014802CE602230B55F7E700230B55F4E7CF
:10FAD00001230B55F1E706F11004CDF800800197E2
:10FAE0002046032102222B46FFF722FD00287FF447
:10FAF0008BADCDF8008001972046072110222B46C0
:10FB0000FFF716FD00287FF47FAD55E606F11804D7
:10FB1000CDF8008001972046142102222B46FFF7E2
:10FB200007FD00287FF470ADCDF8008001972046D6
:10FB3000152110222B46FFF7FBFC00287FF464AD53
:10FB40003EE600BF2DE9F04395B01F230D46ADF80A
:10FB50000E300446002800F09F80C3785B0740F118
:10FB60009780436B0022ADF80C20002B00F06F81D2
:10FB70001B788DF812300322022011218DF810001D
:10FB80001346ADF80C208DF8111005200426216BCA
:10FB9000002965D014AA13441644112703F8407CA9
:10FBA000102214AB06F8402C0344CA7B03F8402C07
:10FBB00014AB03448A7B03F83F2C14AB03444A7B09
:10FBC00003F83E2C14AB03440A7B03F83D2C14AB22
:10FBD0000344CA7A03F83C2C14AB03448A7A03F832
:10FBE0003B2C14AB03444A7A03F83A2C14AB03447D
:10FBF0000A7A03F8392C14AB0344CA7903F8382C79
:10FC000014AB03448A7903F8372C14AB03444A79C4
:10FC100003F8362C14AB03440A7903F8352C14ABE3
:10FC20000344CA7803F8342C14AB03448A7803F8ED
:10FC3000332C00F10E0314AAADF80C3013444E78A7
:10FC400003F8406C00F10F0214AB1344ADF80C2024
:10FC500000F11002097803F8401CADF80C2092B2B4
:10FC600094F82E30002B40F0158294F82D30002BA4
:10FC700040F01F81A378002B40F05281E378002BE5
:10FC80003AD0D11C1F2922D90C2015B0BDE8F08331
:10FC9000072015B0BDE8F083ADF80C00002D00F092
:10FCA000DA80EB78002BF3D128460CA90DF10E0277
:10FCB000FFF79EFC0028ECD19DF80E300CAA2046E0
:10FCC0009DF80C10FFF7E4FB15B0BDE8F083561C5F
:10FCD00014AF901C17FA86F6174414AA12FA80F093
:10FCE0004FF0020E8AB2012107F840ECADF80C206B
:10FCF00006F8401C00F8403C6368B3B1D11C1F29D2
:10FD00001E78C1D814AF501C931C17FA80F03A44E7
:10FD100017FA83F34FF0020E0A2702F840ECADF811
:10FD20000C1000F8407C03F8406C2389002B40F055
:10FD30009780238A002B40F01D81238B002B40F0FD
:10FD40003781236A002B42D0BDF80C20911D1F295A
:10FD50009AD8188805289BD96FF4486C00EB0C06DC
:10FD6000B6B24FF27D37BE4292D95E88052E8FD94A
:10FD70006FF4486EB6441FFA8EFEBE4588D94FF622
:10FD8000FF77B84203D0BE4201D0B04280D814A859
:10FD9000561C10FA86F600EB020E901C80B2122759
:10FDA0004FF0050C0EF840CCADF80C0006F8407C86
:10FDB0001F88ADF80C1004AE3118375404323F0AD6
:10FDC0004F7092B25B88B35432441B0A5370676A17
:10FDD0009FB3B888BDF80C30811C9A1C56181F2E92
:10FDE0003FF652AFFE293FF64FAF14AE591C06EB5B
:10FDF000030E16FA81F192B20330FF260EF8400C82
:10FE0000ADF80C2001F8406C398804AEB018B1543C
:10FE1000090A41700433BA8898B2ADF80C0062B197
:10FE2000B96800293FF434AF304402F075FFBDF8E3
:10FE30000C30BA881344ADF80C3094F82C30002BF9
:10FE400040F0D48004AE237843BB344626E71A46FC
:10FE5000022001269BE62B46ADF80E502A462EE7DF
:10FE600003AA04F1080704AE4FF01F0802218DE831
:10FE70000401384633460A46FFF75AFB00287FF450
:10FE800008AF03AB8DE8080138463346062110223F
:10FE9000FFF74EFB00287FF4FCAE4AE720463146D0
:10FEA00003AA1F23FFF7FCFA00287FF4F2AE3446C2
:10FEB000F4E609321F2A3FF6E7AE0CA8FFF7E6FA90
:10FEC00000287FF4E6AEBDF80C3014AA03F1010E51
:10FED00012FA8EFE9F1C1344BFB24FF01B0C04AEEF
:10FEE0004FF0080803F8408C0DF131010622F0199B
:10FEF0000EF840CCADF80C7002F00EFFBDF80C20EF
:10FF00009DF83010931D9BB2002940F0BD8014A8CD
:10FF1000034403F8401C073292B2ADF80C20A9E666
:10FF200004321F2A3FF6B0AE0CA8FFF7B3FA002840
:10FF30007FF4AFAEBDF80C30BDF83070991C14AA38
:10FF4000581C89B204AE02EB030812FA80F00433A5
:10FF500006EB010E9AB24FF003094FF0190C3B0A61
:10FF600008F8409CADF80C2000F840CC77548EF88F
:10FF7000013083E603AA04F1100704AE4FF01F0816
:10FF80008DE804013846334603210222FFF7D0FAF8
:10FF900000287FF47EAE03AB8DE808013846334677
:10FFA00007211022FFF7C4FA00287FF472AEC4E6DE
:10FFB00003AA04F1180704AE4FF01F088DE80401EE
:10FFC0003846334614210222FFF7B2FA00287FF4A4
:10FFD00060AE03AB8DE80801384633461521102288
:10FFE000FFF7A6FA00287FF454AEAAE6A76A002F0E
:10FFF0003FF44EAEB9880231FE293FF645AE9E462B
:020000022000DC
:10000000BDF80C304FF0000804AE4FF0160914AAEA
:10001000581C02EB030C12FA80F09A1C92B20131C8
:100020000CF8401CADF80C2000F8409C3988B15405
:100030003244090A51700433B9889BB20A46F01859
:10004000ADF80C3079B1BB681946002B3FF420AEF7
:1000500002F062FEBDF80C30BA8894F82CE013442C
:100060009BB2ADF80C3008F101085FFA88F8F04552
:1000700008EB4807BFF4E7AEA26A02EB8707B9882E
:100080000231FE29C3D9FFE514A90B44012103F86D
:10009000401C40E714A9501C14AE11FA80F04FF038
:1000A000020E16441C2702EB0E01013B06F840EC41
:1000B00089B200F8407C032B3FF6EAADDFE803F09D
:1000C0000218120C14AB1944002301F8403C03320F
:1000D00092B2ADF80C20C8E514AB1944032301F823
:1000E000403CF4E714AB1944022301F8403CEEE72E
:1000F00014AB1944012301F8403CE8E773DF704773
:1001000074DF70472DE9F047DDF820C0002800F0CB
:100110009C80002A00F09980174605461C460E4632
:100120000FCFDFF854E1DFF854A1DFF85491CAF89B
:100130000040AEE80F000FCFAEE80F000024DFF85C
:1001400044813B684248434FCEF8003021460722A5
:10015000C8F800C089F80040FBF7F4F93E4B3F4A6D
:10016000DFF824E11A60214638223846C3F808E057
:10017000FBF7E8F905F1100393E80300AA78EB78A0
:1001800095F800E0BA70FB7007F1100395F801C014
:1001900087F800E083E8030005F1080393E8030013
:1001A00007F1080E05F118038EE8030093E8030039
:1001B0006A6A87F801C007F1180383E80300B2B147
:1001C000274B7B62686A274A9A60B0F804E001888E
:1001D0001980A3F804E0BEF1000F08D0013A2346CD
:1001E0008168C95C02F8011F01337345F8D1AB6A1D
:1001F000B3B11D4BBB62A86A1C4A9A6084889C807C
:100200000188198044B1013A00238168C95C02F871
:10021000011F0133A342F8D195F82C3087F82C3018
:100220002B6A33B1124B3B622A6A5188598012887B
:100230001A806B681BB10F4B7B606B687B6031462B
:100240000448BDE8F047FFF77DBC0E20BDE8F0870D
:1002500054270020E4260020A42700208027002027
:100260001C2700202C27002000280020B427002075
:10027000FC270020A02700205C2700202827002042
:10028000F827002050270020D827002030B589B05B
:1002900008AB002543F81C5D984C20701846FDF70C
:1002A00065FF082807D020B9019B2BB1944B012290
:1002B0001A7009B030BD0195924D93480021072274
:1002C000FBF740F96B78002B41D02378012B05D048
:1002D000AA78002A00F0AD80022B0FD18B4A126859
:1002E000002A00F007818A4B0121082019709047ED
:1002F0002378012B00F0AF80022B32D02A7B12B979
:10030000032B00F09F802A7E12B9042B00F09E8000
:100310007E4A12681AB1033B012B40F2BE807D4B2E
:1003200000221A700021182202A8FBF70BF921788D
:1003300000234A1E8DF8083003938DF81030059382
:10034000032A00F2CA80DFE802F0674A351FAB7863
:10035000002BCDD02378022BC0D0012BCED102238D
:100360002370AB78002B67D0674B5A7852B99A78D4
:1003700042B9DA7832B91A7922B95A7912B99B7925
:10038000002B59D00223C3E7634BE8691A79296A25
:10039000ADF81800ADF81A10002A00F0A1802A78F4
:1003A00022B15E4A1178002900F0BE805C4B042225
:1003B0001A7022E0584B68691A792969ADF81A0059
:1003C000ADF81810002A00F090802A781AB1534A2C
:1003D0001178002970D0524B03221A700DE04A495F
:1003E0004F48AA686B6803910224012104708DF8BC
:1003F0000810ADF81A20ADF8183002A8FFF77EFEFD
:1004000000287FF456AF414B1B6813B1444A107863
:100410009847002009B030BD3B4B4149039301226E
:1004200000230A708DF80820ADF81A30ADF81830A6
:10043000E3E7022B7FF462AF2A7B03232370002AB9
:100440007FF466AF2B7E042222700BBB344A00235C
:100450001370237063E76A78002A80D02A4A5178A3
:1004600000297FF455AF917800297FF451AFD178FE
:1004700000297FF44DAF117900297FF449AF5179FC
:1004800000297FF445AF9279002A3FF468AF3FE737
:100490001E4B1A68002A3FF442AF2B78002B3FF422
:1004A0003EAF1E4B1B78002B7FF439AF194B012157
:1004B00007201970904735E71A4A0593042502234F
:1004C0001046D5708DF81030FFF73CFB00287FF404
:1004D000F0AE134B217805221A70002993D08CE7D7
:1004E0001A7B002A7FF45BAF60E71A7B002A7FF457
:1004F0006CAF70E706490A70FBE600BFF8270020E2
:10050000F92700205C2700205427002028270020FE
:10051000D4270020D5270020A42700204C27002026
:100520000C280020E42600200A4A05930425022313
:100530001046D5708DF81030FFF704FB00287FF4CB
:10054000B8AE054B217806221A7000293FF45BAF44
:1005500053E700BFE42600200C28002010B50388D4
:10056000112B17D0192B09D0102B00D010BD037DF3
:10057000012BFBD1214B82881A8010BD8379002B7F
:10058000F4D11F4B1B78013B032BEFD8DFE803F0BE
:100590002F292016194B82881B881A4900209A425D
:1005A0000870E3D10120FFF771FE0028DED0164B62
:1005B0001B68002BDAD0BDE810401847134B144AD3
:1005C0001B6800201070002BD0D0BDE810401847E9
:1005D0000F4B032204201A70FFF758FE0028E6D1C3
:1005E000C4E70320FFF752FE0028E0D1BEE7022057
:1005F000FFF74CFE0028DAD1B8E700BF701F0020DB
:10060000F82700204C270020502700202827002012
:100610000C2800200238012818D830B5904C2378D7
:1006200089B00BB909B030BD08A8002540F81C5DA1
:100630002570FDF79BFD082809D0002840F0858033
:10064000019B2BB10123237009B030BD7047019588
:10065000844C854800210722FAF774FF6378002B49
:1006600032D0824D2B78012B00F0EF80A278002A47
:1006700000F02681022B00F0E880227B0AB9032BD0
:100680004CD0227E12B9042B00F01581784A1268F2
:1006900012B1033B012B4BD9764B00221A7000217B
:1006A000182202A8FAF74EFF297800234A1E8DF877
:1006B000083003938DF810300593032A00F2F78079
:1006C000DFE802F09A8B7653A378684D002B44D173
:1006D0002B78012B00F09D80022BCED1A378C3B1E3
:1006E000614B5A78002A40F0F2809A78002A40F054
:1006F000EE80DA78002A40F0EA801A79002A40F089
:10070000E6805A79002A40F0E2809B79002B40F085
:10071000DE80227B03232B70002AB7D1237E0422A4
:100720002A70002B00F0C780514B1A68002AB3D002
:100730002378002BB0D0504B1B78002BACD14D4B05
:100740000121072019709047A9E74C4B1B68002B2B
:100750003FF468AF984709B030BD2B78022B74D0B6
:10076000012B8AD102232B70B8E7454BE0691A7937
:10077000216AADF81800ADF81A100AB91A7B32B127
:10078000227822B13C4A1178002900F0A2803D4B2A
:1007900004221A7002A8FFF7B1FC0028D5D1344B0F
:1007A0001B68002B3FF43EAF364A1078984739E774
:1007B000334B60691A792169ADF81A00ADF8181049
:1007C0000AB91A7B2AB122781AB12B4A117800296A
:1007D0005CD02C4B03221A70DCE723492948A2681D
:1007E000636803910224012104708DF80810ADF8AC
:1007F0001A20ADF81830CDE71B4B22490393012294
:1008000000230A708DF80820ADF81A30ADF81830C2
:10081000C0E76278002AA5D0134A517800297FF4F6
:1008200035AF917800297FF431AFD17800297FF47A
:100830002DAF117900297FF429AF517900297FF478
:1008400025AF9279002A8DD020E7094A1268002A44
:100850003AD00D4B012108201970904738E700BFAE
:10086000F92700205C27002054270020F8270020CB
:1008700028270020D52700204C27002050270020C3
:10088000A42700200C280020D42700201B4A059311
:10089000042402231046D4708DF81030FFF752F96B
:1008A00000287FF452AF164B297805221A700029D0
:1008B0003FF475AF6EE7124A002313702B70EBE61E
:1008C000022B7FF4DAAE24E70E490A7001E7022317
:1008D000DCE60A4A0593042402231046D4708DF8FE
:1008E0001030FFF72FF900287FF42FAF044B297841
:1008F00006221A7000293FF452AF4BE7E42600208D
:100900000C280020D42700202DE9F041964C2378B4
:1009100088B0002B33D0954D2B78002B2FD1944EDF
:100920003378002B2FD108A84FF0000840F81C8D19
:1009300001272F70FDF71AFC08282FD040BB019B20
:10094000002B2DD08B4B1F7008B0BDE8F0818A4979
:100950008A48A268636803910224012104708DF81B
:100960000810ADF81A20ADF8183002A8FFF7C6FB42
:1009700070B9834B1B6813B1804A107898470020E8
:1009800008B0BDE8F081FFF7BBFB0028CBD0F7E74C
:100990007C4B1B68002BF2D09847F0E7CDF8048021
:1009A000072275480021FAF7CDFD63786E4A002BC7
:1009B00032D03378012B05D09278002A00F0FF80E6
:1009C000022B0FD16E4A1268002A00F0FC806E4B99
:1009D00001210820197090473378012B00F0AB807B
:1009E000022B23D0227B002A66D1032B64D1237EE5
:1009F00004223270002B64D0614B1A68002A3BD06D
:100A00002378002B38D02B78002B35D15F4B012178
:100A100007201970904732E09378002BDCD03378B0
:100A2000022BCFD0012BDDD102233370A378C3B1C9
:100A3000514B5A78002A40F0C9809A78002A40F039
:100A4000C580DA78002A40F0C1801A79002A40F087
:100A5000BD805A79002A40F0B9809B79002B40F084
:100A6000B580227B03233370002AC0D0444A126829
:100A700012B1033B012BC3D9444B00221A70002151
:100A8000182202A8FAF75EFD317800234A1E8DF87D
:100A9000083003938DF810300593032A00F28B8001
:100AA00001A353F822F000BFCD0A02004F09020053
:100AB0000F0B0200E70A0200227E002AD6D1042B87
:100AC000D4D12E4A002313703370D5E72A4B2B491B
:100AD0000393012200230A708DF80820ADF81A3024
:100AE000ADF8183041E72A4BE0691A79216AADF870
:100AF0001800ADF81A100AB91A7B22B1227812B187
:100B00002978002964D01D4B04221A702DE7204B50
:100B100060691A792169ADF81A00ADF818100AB9A0
:100B20001A7B22B1227812B12978002932D0134BD6
:100B300003221A7019E76278002A3FF475AF0E4A53
:100B40005178002992D1917800298FD1D17800294C
:100B50008CD11179002989D15179002986D19279D6
:100B6000002A3FF461AF81E75C2700204C2700207A
:100B7000F8270020F9270020542700200C28002007
:100B80002827002050270020D4270020D527002028
:100B9000A4270020194A0593042402231046D47088
:100BA0008DF81030FEF7CEFF00287FF4F1AE144B25
:100BB000317805221A7000293FF4DBAED5E6022B0E
:100BC0007FF410AF4DE70F490A7006E702234DE7A7
:100BD0000A4A0593042402231046D4708DF810307D
:100BE000FEF7B0FF00287FF4D3AE054B3178062224
:100BF0001A7000293FF4BDAEB7E600BFE42600201E
:100C00000C280020D4270020A0DF7047A2DF704707
:100C1000A3DF7047A4DF7047A6DF704748B141B13A
:100C20000B88112B11D0502B04D0102B04BF8B88B4
:100C300043827047037D002BFBD010B54389CC88DD
:100C40009C4282B005D002B010BD4FF6FF734382C4
:100C50007047CB8B022BF6D10268002AF3D091F8B3
:100C6000203002A903F0010383F0010301F8043DE1
:100C70009047E8E7D8B1D1B1F0B50E4693B03368EC
:100C8000036012A94FF6FF7341F60F024382044638
:100C9000012521F8382D327902750374221D28466A
:100CA0008DF81250FFF7B0FF18B113B0F0BD0E2051
:100CB0007047237D002B40F0978000211C220BA859
:100CC000FAF740FC9DF82C20237D42F0020200211F
:100CD00063F304128DF82C200C910E910F9103B147
:100CE00002AB00250127294642F6192E032203A84C
:100CF00010931195ADF814E08DF81670FAF722FCF8
:100D00009DF80E30B27B96F80FC096F80CE08DF887
:100D10000C2067F3420303F0E70365F30003294661
:100D2000142206A88DF80E308DF80DC08DF803E062
:100D3000FAF708FC03AB0DF1030E0793ADF8225050
:100D40000BA905AD06AAA0880695A31DADF82070D5
:100D5000ADF82470CDF828E0FFF758FF05460028CD
:100D6000A3D1B068002856D042F60813294603A83C
:100D700003228DF81670ADF81430FAF7E3FB9DF8F6
:100D80000E309DF80D20307CB1688DF80C0067F3B3
:100D9000420365F3C30301AF65F3041365F3030274
:100DA00065F3000365F3071238468DF80E308DF8B1
